{
  "contractName": "Rx",
  "abi": [
    {
      "inputs": [],
      "stateMutability": "nonpayable",
      "type": "constructor"
    },
    {
      "inputs": [],
      "name": "admin",
      "outputs": [
        {
          "internalType": "address",
          "name": "",
          "type": "address"
        }
      ],
      "stateMutability": "view",
      "type": "function"
    },
    {
      "inputs": [
        {
          "internalType": "address",
          "name": "",
          "type": "address"
        }
      ],
      "name": "patientStructs",
      "outputs": [
        {
          "internalType": "string",
          "name": "name",
          "type": "string"
        },
        {
          "internalType": "string",
          "name": "ic",
          "type": "string"
        },
        {
          "internalType": "uint256",
          "name": "birthDate",
          "type": "uint256"
        },
        {
          "internalType": "string",
          "name": "homeAddress",
          "type": "string"
        },
        {
          "internalType": "address",
          "name": "addr",
          "type": "address"
        },
        {
          "internalType": "bool",
          "name": "valid",
          "type": "bool"
        }
      ],
      "stateMutability": "view",
      "type": "function"
    },
    {
      "inputs": [
        {
          "internalType": "address",
          "name": "",
          "type": "address"
        }
      ],
      "name": "pharmacistStructs",
      "outputs": [
        {
          "internalType": "string",
          "name": "name",
          "type": "string"
        },
        {
          "internalType": "string",
          "name": "prn",
          "type": "string"
        },
        {
          "internalType": "string",
          "name": "clinicName",
          "type": "string"
        },
        {
          "internalType": "string",
          "name": "clinicAddress",
          "type": "string"
        },
        {
          "internalType": "address",
          "name": "addr",
          "type": "address"
        },
        {
          "internalType": "bool",
          "name": "valid",
          "type": "bool"
        }
      ],
      "stateMutability": "view",
      "type": "function"
    },
    {
      "inputs": [
        {
          "internalType": "uint256",
          "name": "",
          "type": "uint256"
        }
      ],
      "name": "prescriberList",
      "outputs": [
        {
          "internalType": "address",
          "name": "",
          "type": "address"
        }
      ],
      "stateMutability": "view",
      "type": "function"
    },
    {
      "inputs": [
        {
          "internalType": "address",
          "name": "",
          "type": "address"
        }
      ],
      "name": "prescriberStructs",
      "outputs": [
        {
          "internalType": "string",
          "name": "name",
          "type": "string"
        },
        {
          "internalType": "string",
          "name": "mcr",
          "type": "string"
        },
        {
          "internalType": "string",
          "name": "clinicName",
          "type": "string"
        },
        {
          "internalType": "string",
          "name": "clinicAddress",
          "type": "string"
        },
        {
          "internalType": "address",
          "name": "addr",
          "type": "address"
        },
        {
          "internalType": "bool",
          "name": "valid",
          "type": "bool"
        }
      ],
      "stateMutability": "view",
      "type": "function"
    },
    {
      "inputs": [
        {
          "internalType": "uint256",
          "name": "",
          "type": "uint256"
        }
      ],
      "name": "prescriptionStructs",
      "outputs": [
        {
          "internalType": "uint256",
          "name": "date",
          "type": "uint256"
        },
        {
          "components": [
            {
              "internalType": "string",
              "name": "name",
              "type": "string"
            },
            {
              "internalType": "string",
              "name": "ic",
              "type": "string"
            },
            {
              "internalType": "uint256",
              "name": "birthDate",
              "type": "uint256"
            },
            {
              "internalType": "string",
              "name": "homeAddress",
              "type": "string"
            },
            {
              "internalType": "address",
              "name": "addr",
              "type": "address"
            },
            {
              "internalType": "uint256[]",
              "name": "prescriptionList",
              "type": "uint256[]"
            },
            {
              "internalType": "bool",
              "name": "valid",
              "type": "bool"
            }
          ],
          "internalType": "struct Rx.Patient",
          "name": "patientDetails",
          "type": "tuple"
        },
        {
          "components": [
            {
              "internalType": "string",
              "name": "name",
              "type": "string"
            },
            {
              "internalType": "string",
              "name": "mcr",
              "type": "string"
            },
            {
              "internalType": "string",
              "name": "clinicName",
              "type": "string"
            },
            {
              "internalType": "string",
              "name": "clinicAddress",
              "type": "string"
            },
            {
              "internalType": "address",
              "name": "addr",
              "type": "address"
            },
            {
              "internalType": "bool",
              "name": "valid",
              "type": "bool"
            }
          ],
          "internalType": "struct Rx.Prescriber",
          "name": "prescriberDetails",
          "type": "tuple"
        },
        {
          "internalType": "bool",
          "name": "valid",
          "type": "bool"
        },
        {
          "internalType": "bool",
          "name": "reviewed",
          "type": "bool"
        }
      ],
      "stateMutability": "view",
      "type": "function"
    },
    {
      "inputs": [
        {
          "internalType": "string",
          "name": "_name",
          "type": "string"
        },
        {
          "internalType": "string",
          "name": "_mcr",
          "type": "string"
        },
        {
          "internalType": "string",
          "name": "_clinicName",
          "type": "string"
        },
        {
          "internalType": "string",
          "name": "_clinicAddress",
          "type": "string"
        },
        {
          "internalType": "address",
          "name": "_addr",
          "type": "address"
        }
      ],
      "name": "setPrescriber",
      "outputs": [],
      "stateMutability": "nonpayable",
      "type": "function"
    },
    {
      "inputs": [
        {
          "internalType": "string",
          "name": "_name",
          "type": "string"
        },
        {
          "internalType": "string",
          "name": "_mcr",
          "type": "string"
        },
        {
          "internalType": "string",
          "name": "_clinicName",
          "type": "string"
        },
        {
          "internalType": "string",
          "name": "_clinicAddress",
          "type": "string"
        },
        {
          "internalType": "address",
          "name": "_addr",
          "type": "address"
        }
      ],
      "name": "updatePrescriber",
      "outputs": [],
      "stateMutability": "nonpayable",
      "type": "function"
    },
    {
      "inputs": [
        {
          "internalType": "string",
          "name": "_name",
          "type": "string"
        },
        {
          "internalType": "string",
          "name": "_ic",
          "type": "string"
        },
        {
          "internalType": "uint256",
          "name": "_birthDate",
          "type": "uint256"
        },
        {
          "internalType": "string",
          "name": "_homeAddress",
          "type": "string"
        },
        {
          "internalType": "address",
          "name": "_addr",
          "type": "address"
        }
      ],
      "name": "setPatient",
      "outputs": [],
      "stateMutability": "nonpayable",
      "type": "function"
    },
    {
      "inputs": [
        {
          "internalType": "string",
          "name": "_name",
          "type": "string"
        },
        {
          "internalType": "string",
          "name": "_ic",
          "type": "string"
        },
        {
          "internalType": "uint256",
          "name": "_birthDate",
          "type": "uint256"
        },
        {
          "internalType": "string",
          "name": "_homeAddress",
          "type": "string"
        },
        {
          "internalType": "address",
          "name": "_addr",
          "type": "address"
        }
      ],
      "name": "updatePatient",
      "outputs": [],
      "stateMutability": "nonpayable",
      "type": "function"
    },
    {
      "inputs": [
        {
          "internalType": "string",
          "name": "_name",
          "type": "string"
        },
        {
          "internalType": "string",
          "name": "_prn",
          "type": "string"
        },
        {
          "internalType": "string",
          "name": "_clinicName",
          "type": "string"
        },
        {
          "internalType": "string",
          "name": "_clinicAddress",
          "type": "string"
        },
        {
          "internalType": "address",
          "name": "_addr",
          "type": "address"
        }
      ],
      "name": "setPharmacist",
      "outputs": [],
      "stateMutability": "nonpayable",
      "type": "function"
    },
    {
      "inputs": [
        {
          "internalType": "string",
          "name": "_name",
          "type": "string"
        },
        {
          "internalType": "string",
          "name": "_prn",
          "type": "string"
        },
        {
          "internalType": "string",
          "name": "_clinicName",
          "type": "string"
        },
        {
          "internalType": "string",
          "name": "_clinicAddress",
          "type": "string"
        },
        {
          "internalType": "address",
          "name": "_addr",
          "type": "address"
        }
      ],
      "name": "updatePharmacist",
      "outputs": [],
      "stateMutability": "nonpayable",
      "type": "function"
    },
    {
      "inputs": [
        {
          "internalType": "address",
          "name": "_prescriberAddr",
          "type": "address"
        },
        {
          "internalType": "address",
          "name": "_patientAddr",
          "type": "address"
        }
      ],
      "name": "newPrescription",
      "outputs": [],
      "stateMutability": "nonpayable",
      "type": "function"
    },
    {
      "inputs": [
        {
          "internalType": "uint256",
          "name": "_prescriptionKey",
          "type": "uint256"
        },
        {
          "internalType": "string",
          "name": "_drugName",
          "type": "string"
        },
        {
          "internalType": "string",
          "name": "_strength",
          "type": "string"
        },
        {
          "internalType": "string",
          "name": "_dosing",
          "type": "string"
        },
        {
          "internalType": "uint256",
          "name": "_duration",
          "type": "uint256"
        },
        {
          "internalType": "uint256",
          "name": "_quantity",
          "type": "uint256"
        }
      ],
      "name": "addDrug",
      "outputs": [],
      "stateMutability": "nonpayable",
      "type": "function"
    },
    {
      "inputs": [
        {
          "internalType": "uint256",
          "name": "_prescriptionKey",
          "type": "uint256"
        },
        {
          "internalType": "uint256",
          "name": "_drugKey",
          "type": "uint256"
        }
      ],
      "name": "removeDrug",
      "outputs": [],
      "stateMutability": "nonpayable",
      "type": "function"
    },
    {
      "inputs": [
        {
          "internalType": "uint256",
          "name": "_prescriptionKey",
          "type": "uint256"
        },
        {
          "internalType": "uint256",
          "name": "_drugKey",
          "type": "uint256"
        },
        {
          "internalType": "string",
          "name": "_drugName",
          "type": "string"
        },
        {
          "internalType": "string",
          "name": "_strength",
          "type": "string"
        },
        {
          "internalType": "string",
          "name": "_dosing",
          "type": "string"
        },
        {
          "internalType": "uint256",
          "name": "_duration",
          "type": "uint256"
        },
        {
          "internalType": "uint256",
          "name": "_quantity",
          "type": "uint256"
        }
      ],
      "name": "updateDrug",
      "outputs": [],
      "stateMutability": "nonpayable",
      "type": "function"
    },
    {
      "inputs": [
        {
          "internalType": "uint256",
          "name": "_prescriptionKey",
          "type": "uint256"
        },
        {
          "internalType": "uint256",
          "name": "_drugKey",
          "type": "uint256"
        },
        {
          "internalType": "uint256",
          "name": "_dispensedQuantity",
          "type": "uint256"
        },
        {
          "internalType": "uint256",
          "name": "_dispensedDuration",
          "type": "uint256"
        }
      ],
      "name": "dispenseDrug",
      "outputs": [],
      "stateMutability": "nonpayable",
      "type": "function"
    },
    {
      "inputs": [
        {
          "internalType": "uint256",
          "name": "_prescriptionKey",
          "type": "uint256"
        }
      ],
      "name": "checkValid",
      "outputs": [],
      "stateMutability": "nonpayable",
      "type": "function"
    },
    {
      "inputs": [
        {
          "internalType": "uint256",
          "name": "_prescriptionKey",
          "type": "uint256"
        }
      ],
      "name": "reviewPrescription",
      "outputs": [],
      "stateMutability": "nonpayable",
      "type": "function"
    },
    {
      "inputs": [
        {
          "internalType": "uint256",
          "name": "_prescriptionKey",
          "type": "uint256"
        },
        {
          "internalType": "string",
          "name": "_drugName",
          "type": "string"
        }
      ],
      "name": "checkChanges",
      "outputs": [
        {
          "internalType": "uint256",
          "name": "",
          "type": "uint256"
        },
        {
          "internalType": "string",
          "name": "",
          "type": "string"
        },
        {
          "internalType": "string",
          "name": "",
          "type": "string"
        },
        {
          "internalType": "string",
          "name": "",
          "type": "string"
        }
      ],
      "stateMutability": "view",
      "type": "function"
    },
    {
      "inputs": [
        {
          "internalType": "uint256",
          "name": "_prescriptionKey",
          "type": "uint256"
        }
      ],
      "name": "removePrescription",
      "outputs": [],
      "stateMutability": "nonpayable",
      "type": "function"
    },
    {
      "inputs": [
        {
          "internalType": "address",
          "name": "_addr",
          "type": "address"
        }
      ],
      "name": "removePrescriber",
      "outputs": [],
      "stateMutability": "nonpayable",
      "type": "function"
    },
    {
      "inputs": [
        {
          "internalType": "address",
          "name": "_addr",
          "type": "address"
        }
      ],
      "name": "removePatient",
      "outputs": [],
      "stateMutability": "nonpayable",
      "type": "function"
    },
    {
      "inputs": [
        {
          "internalType": "address",
          "name": "_addr",
          "type": "address"
        }
      ],
      "name": "removePharmacist",
      "outputs": [],
      "stateMutability": "nonpayable",
      "type": "function"
    },
    {
      "inputs": [],
      "name": "getAdmin",
      "outputs": [
        {
          "internalType": "address",
          "name": "",
          "type": "address"
        }
      ],
      "stateMutability": "view",
      "type": "function"
    },
    {
      "inputs": [],
      "name": "getPatientList",
      "outputs": [
        {
          "internalType": "address[]",
          "name": "",
          "type": "address[]"
        }
      ],
      "stateMutability": "view",
      "type": "function"
    },
    {
      "inputs": [],
      "name": "getPrescriberList",
      "outputs": [
        {
          "internalType": "address[]",
          "name": "",
          "type": "address[]"
        }
      ],
      "stateMutability": "view",
      "type": "function"
    },
    {
      "inputs": [],
      "name": "getPharmacistList",
      "outputs": [
        {
          "internalType": "address[]",
          "name": "",
          "type": "address[]"
        }
      ],
      "stateMutability": "view",
      "type": "function"
    },
    {
      "inputs": [],
      "name": "getPrescriptionList",
      "outputs": [
        {
          "internalType": "uint256[]",
          "name": "",
          "type": "uint256[]"
        }
      ],
      "stateMutability": "view",
      "type": "function"
    },
    {
      "inputs": [
        {
          "internalType": "address",
          "name": "_addr",
          "type": "address"
        }
      ],
      "name": "getPrescriberName",
      "outputs": [
        {
          "internalType": "string",
          "name": "",
          "type": "string"
        }
      ],
      "stateMutability": "view",
      "type": "function"
    },
    {
      "inputs": [
        {
          "internalType": "address",
          "name": "_addr",
          "type": "address"
        }
      ],
      "name": "getPatientPrescrptionList",
      "outputs": [
        {
          "internalType": "uint256[]",
          "name": "",
          "type": "uint256[]"
        }
      ],
      "stateMutability": "view",
      "type": "function"
    },
    {
      "inputs": [
        {
          "internalType": "uint256",
          "name": "_prescriptionKey",
          "type": "uint256"
        }
      ],
      "name": "getPatientPrescrptionOverview",
      "outputs": [
        {
          "internalType": "uint256",
          "name": "",
          "type": "uint256"
        },
        {
          "internalType": "string",
          "name": "",
          "type": "string"
        },
        {
          "internalType": "string",
          "name": "",
          "type": "string"
        },
        {
          "internalType": "bool",
          "name": "",
          "type": "bool"
        },
        {
          "internalType": "bool",
          "name": "",
          "type": "bool"
        }
      ],
      "stateMutability": "view",
      "type": "function"
    },
    {
      "inputs": [
        {
          "internalType": "uint256",
          "name": "_prescriptionKey",
          "type": "uint256"
        }
      ],
      "name": "getPrescriptionDrugKeys",
      "outputs": [
        {
          "internalType": "uint256[]",
          "name": "",
          "type": "uint256[]"
        }
      ],
      "stateMutability": "view",
      "type": "function"
    },
    {
      "inputs": [
        {
          "internalType": "uint256",
          "name": "_prescriptionKey",
          "type": "uint256"
        },
        {
          "internalType": "uint256",
          "name": "_drugKey",
          "type": "uint256"
        }
      ],
      "name": "getPrescriptionDrugDetailsPart1",
      "outputs": [
        {
          "internalType": "string",
          "name": "",
          "type": "string"
        },
        {
          "internalType": "string",
          "name": "",
          "type": "string"
        },
        {
          "internalType": "string",
          "name": "",
          "type": "string"
        },
        {
          "internalType": "uint256",
          "name": "",
          "type": "uint256"
        },
        {
          "internalType": "uint256",
          "name": "",
          "type": "uint256"
        }
      ],
      "stateMutability": "view",
      "type": "function"
    },
    {
      "inputs": [
        {
          "internalType": "uint256",
          "name": "_prescriptionKey",
          "type": "uint256"
        },
        {
          "internalType": "uint256",
          "name": "_drugKey",
          "type": "uint256"
        }
      ],
      "name": "getPrescriptionDrugDetailsPart2",
      "outputs": [
        {
          "internalType": "bool",
          "name": "",
          "type": "bool"
        },
        {
          "internalType": "uint256",
          "name": "",
          "type": "uint256"
        },
        {
          "internalType": "uint256",
          "name": "",
          "type": "uint256"
        },
        {
          "internalType": "bool",
          "name": "",
          "type": "bool"
        }
      ],
      "stateMutability": "view",
      "type": "function"
    },
    {
      "inputs": [
        {
          "internalType": "uint256",
          "name": "_prescriptionKey",
          "type": "uint256"
        },
        {
          "internalType": "uint256",
          "name": "_drugKey",
          "type": "uint256"
        },
        {
          "internalType": "uint256",
          "name": "_dispenseCounter",
          "type": "uint256"
        }
      ],
      "name": "getDispensedDetails",
      "outputs": [
        {
          "internalType": "uint256",
          "name": "",
          "type": "uint256"
        },
        {
          "internalType": "uint256",
          "name": "",
          "type": "uint256"
        },
        {
          "internalType": "uint256",
          "name": "",
          "type": "uint256"
        },
        {
          "internalType": "bool",
          "name": "",
          "type": "bool"
        }
      ],
      "stateMutability": "view",
      "type": "function"
    }
  ],
  "bytecode": "0x608060405234801561001057600080fd5b5033600860006101000a81548173ffffffffffffffffffffffffffffffffffffffff021916908373ffffffffffffffffffffffffffffffffffffffff1602179055506152a3806100616000396000f3fe608060405234801561001057600080fd5b506004361061021c5760003560e01c80638c983bf311610125578063c200b4d3116100ad578063d9c54dcd1161007c578063d9c54dcd1461069e578063dd81f92b146106ba578063eb578d3c146106d8578063f67f0d861461070b578063f851a440146107275761021c565b8063c200b4d31461062c578063c26ec92b14610648578063ccae34c614610664578063cef5b023146106805761021c565b8063930e44e3116100f4578063930e44e31461055f578063a11dd5a21461058f578063a11f26b8146105ab578063a4a124b9146105e0578063ac62f3ef146105fc5761021c565b80638c983bf3146104d65780638f11039d1461050b5780638f8bd34f146105275780638fa50a2a146105435761021c565b806344773fb9116101a85780636fe15449116101775780636fe15449146104195780637c99f785146104355780637d0d6257146104685780638011c8351461048457806389b95b7b146104a25761021c565b806344773fb914610376578063503b1354146103aa5780635e61d067146103c85780636e9960c3146103fb5761021c565b806324cb080d116101ef57806324cb080d146102aa5780632aa532cf146102c657806332d7ab20146102f657806338639dc1146103265780633f544fb0146103425761021c565b80630d21d762146102215780630fbcf7271461023d5780631cc830df146102725780631ec0db501461028e575b600080fd5b61023b6004803603810190610236919061424c565b610745565b005b6102576004803603810190610252919061431b565b610903565b60405161026996959493929190614409565b60405180910390f35b61028c6004803603810190610287919061447f565b610b04565b005b6102a860048036038101906102a391906144ac565b610bca565b005b6102c460048036038101906102bf919061447f565b610d96565b005b6102e060048036038101906102db919061447f565b610e5d565b6040516102ed9190614597565b60405180910390f35b610310600480360381019061030b919061431b565b610e9c565b60405161031d9190614670565b60405180910390f35b610340600480360381019061033b91906144ac565b610f36565b005b61035c6004803603810190610357919061447f565b611104565b60405161036d9594939291906148b8565b60405180910390f35b610390600480360381019061038b919061447f565b6116aa565b6040516103a1959493929190614919565b60405180910390f35b6103b2611884565b6040516103bf9190614a29565b60405180910390f35b6103e260048036038101906103dd9190614a4b565b611912565b6040516103f29493929190614a9e565b60405180910390f35b6104036119ac565b6040516104109190614597565b60405180910390f35b610433600480360381019061042e919061431b565b6119d6565b005b61044f600480360381019061044a9190614ae3565b611ac3565b60405161045f9493929190614b23565b60405180910390f35b610482600480360381019061047d919061431b565b611b50565b005b61048c611c3e565b6040516104999190614a29565b60405180910390f35b6104bc60048036038101906104b79190614ae3565b611ccc565b6040516104cd959493929190614b68565b60405180910390f35b6104f060048036038101906104eb919061431b565b611ee7565b60405161050296959493929190614bd0565b60405180910390f35b6105256004803603810190610520919061447f565b612170565b005b610541600480360381019061053c9190614c4d565b61220a565b005b61055d600480360381019061055891906144ac565b6126cf565b005b6105796004803603810190610574919061447f565b61292c565b6040516105869190614670565b60405180910390f35b6105a960048036038101906105a49190614c8d565b6129a0565b005b6105c560048036038101906105c0919061431b565b612bfc565b6040516105d796959493929190614bd0565b60405180910390f35b6105fa60048036038101906105f5919061424c565b612e85565b005b6106166004803603810190610611919061431b565b61313b565b6040516106239190614cf4565b60405180910390f35b61064660048036038101906106419190614ae3565b61320e565b005b610662600480360381019061065d9190614d16565b61334c565b005b61067e600480360381019061067991906144ac565b6135d3565b005b61068861382f565b6040516106959190614a29565b60405180910390f35b6106b860048036038101906106b3919061431b565b6138bd565b005b6106c26139ab565b6040516106cf9190614670565b60405180910390f35b6106f260048036038101906106ed9190614df7565b613a03565b6040516107029493929190614e53565b60405180910390f35b61072560048036038101906107209190614ead565b613cba565b005b61072f613e69565b60405161073c9190614597565b60405180910390f35b600860009054906101000a900473ffffffffffffffffffffffffffffffffffffffff1673ffffffffffffffffffffffffffffffffffffffff163373ffffffffffffffffffffffffffffffffffffffff16146107d5576040517f08c379a00000000000000000000000000000000000000000000000000000000081526004016107cc90615015565b60405180910390fd5b600260008273ffffffffffffffffffffffffffffffffffffffff1673ffffffffffffffffffffffffffffffffffffffff16815260200190815260200160002060060160009054906101000a900460ff16610864576040517f08c379a000000000000000000000000000000000000000000000000000000000815260040161085b90615081565b60405180910390fd5b6000600260008373ffffffffffffffffffffffffffffffffffffffff1673ffffffffffffffffffffffffffffffffffffffff1681526020019081526020016000209050858160000190805190602001906108bf929190613e8f565b50848160010190805190602001906108d8929190613e8f565b50838160020181905550828160030190805190602001906108fa929190613e8f565b50505050505050565b6002602052806000526040600020600091509050806000018054610926906150d0565b80601f0160208091040260200160405190810160405280929190818152602001828054610952906150d0565b801561099f5780601f106109745761010080835404028352916020019161099f565b820191906000526020600020905b81548152906001019060200180831161098257829003601f168201915b5050505050908060010180546109b4906150d0565b80601f01602080910402602001604051908101604052809291908181526020018280546109e0906150d0565b8015610a2d5780601f10610a0257610100808354040283529160200191610a2d565b820191906000526020600020905b815481529060010190602001808311610a1057829003601f168201915b505050505090806002015490806003018054610a48906150d0565b80601f0160208091040260200160405190810160405280929190818152602001828054610a74906150d0565b8015610ac15780601f10610a9657610100808354040283529160200191610ac1565b820191906000526020600020905b815481529060010190602001808311610aa457829003601f168201915b5050505050908060040160009054906101000a900473ffffffffffffffffffffffffffffffffffffffff16908060060160009054906101000a900460ff16905086565b60003390506000808273ffffffffffffffffffffffffffffffffffffffff1673ffffffffffffffffffffffffffffffffffffffff16815260200190815260200160002060040160149054906101000a900460ff16610b97576040517f08c379a0000000000000000000000000000000000000000000000000000000008152600401610b8e90615015565b60405180910390fd5b60006006600084815260200190815260200160002060100160006101000a81548160ff0219169083151502179055505050565b600860009054906101000a900473ffffffffffffffffffffffffffffffffffffffff1673ffffffffffffffffffffffffffffffffffffffff163373ffffffffffffffffffffffffffffffffffffffff1614610c5a576040517f08c379a0000000000000000000000000000000000000000000000000000000008152600401610c5190615015565b60405180910390fd5b6000808273ffffffffffffffffffffffffffffffffffffffff1673ffffffffffffffffffffffffffffffffffffffff16815260200190815260200160002060040160149054906101000a900460ff16610ce8576040517f08c379a0000000000000000000000000000000000000000000000000000000008152600401610cdf90615081565b60405180910390fd5b60008060008373ffffffffffffffffffffffffffffffffffffffff1673ffffffffffffffffffffffffffffffffffffffff168152602001908152602001600020905085816000019080519060200190610d42929190613e8f565b5084816001019080519060200190610d5b929190613e8f565b5083816002019080519060200190610d74929190613e8f565b5082816003019080519060200190610d8d929190613e8f565b50505050505050565b6000339050600460008273ffffffffffffffffffffffffffffffffffffffff1673ffffffffffffffffffffffffffffffffffffffff16815260200190815260200160002060040160149054906101000a900460ff16610e2a576040517f08c379a0000000000000000000000000000000000000000000000000000000008152600401610e2190615015565b60405180910390fd5b60016006600084815260200190815260200160002060100160016101000a81548160ff0219169083151502179055505050565b60018181548110610e6d57600080fd5b906000526020600020016000915054906101000a900473ffffffffffffffffffffffffffffffffffffffff1681565b6060600260008373ffffffffffffffffffffffffffffffffffffffff1673ffffffffffffffffffffffffffffffffffffffff168152602001908152602001600020600501805480602002602001604051908101604052809291908181526020018280548015610f2a57602002820191906000526020600020905b815481526020019060010190808311610f16575b50505050509050919050565b600860009054906101000a900473ffffffffffffffffffffffffffffffffffffffff1673ffffffffffffffffffffffffffffffffffffffff163373ffffffffffffffffffffffffffffffffffffffff1614610fc6576040517f08c379a0000000000000000000000000000000000000000000000000000000008152600401610fbd90615015565b60405180910390fd5b600460008273ffffffffffffffffffffffffffffffffffffffff1673ffffffffffffffffffffffffffffffffffffffff16815260200190815260200160002060040160149054906101000a900460ff16611055576040517f08c379a000000000000000000000000000000000000000000000000000000000815260040161104c90615081565b60405180910390fd5b6000600460008373ffffffffffffffffffffffffffffffffffffffff1673ffffffffffffffffffffffffffffffffffffffff1681526020019081526020016000209050858160000190805190602001906110b0929190613e8f565b50848160010190805190602001906110c9929190613e8f565b50838160020190805190602001906110e2929190613e8f565b50828160030190805190602001906110fb929190613e8f565b50505050505050565b6006602052806000526040600020600091509050806000015490806001016040518060e001604052908160008201805461113d906150d0565b80601f0160208091040260200160405190810160405280929190818152602001828054611169906150d0565b80156111b65780601f1061118b576101008083540402835291602001916111b6565b820191906000526020600020905b81548152906001019060200180831161119957829003601f168201915b505050505081526020016001820180546111cf906150d0565b80601f01602080910402602001604051908101604052809291908181526020018280546111fb906150d0565b80156112485780601f1061121d57610100808354040283529160200191611248565b820191906000526020600020905b81548152906001019060200180831161122b57829003601f168201915b505050505081526020016002820154815260200160038201805461126b906150d0565b80601f0160208091040260200160405190810160405280929190818152602001828054611297906150d0565b80156112e45780601f106112b9576101008083540402835291602001916112e4565b820191906000526020600020905b8154815290600101906020018083116112c757829003601f168201915b505050505081526020016004820160009054906101000a900473ffffffffffffffffffffffffffffffffffffffff1673ffffffffffffffffffffffffffffffffffffffff1673ffffffffffffffffffffffffffffffffffffffff1681526020016005820180548060200260200160405190810160405280929190818152602001828054801561139257602002820191906000526020600020905b81548152602001906001019080831161137e575b505050505081526020016006820160009054906101000a900460ff16151515158152505090806008016040518060c00160405290816000820180546113d6906150d0565b80601f0160208091040260200160405190810160405280929190818152602001828054611402906150d0565b801561144f5780601f106114245761010080835404028352916020019161144f565b820191906000526020600020905b81548152906001019060200180831161143257829003601f168201915b50505050508152602001600182018054611468906150d0565b80601f0160208091040260200160405190810160405280929190818152602001828054611494906150d0565b80156114e15780601f106114b6576101008083540402835291602001916114e1565b820191906000526020600020905b8154815290600101906020018083116114c457829003601f168201915b505050505081526020016002820180546114fa906150d0565b80601f0160208091040260200160405190810160405280929190818152602001828054611526906150d0565b80156115735780601f1061154857610100808354040283529160200191611573565b820191906000526020600020905b81548152906001019060200180831161155657829003601f168201915b5050505050815260200160038201805461158c906150d0565b80601f01602080910402602001604051908101604052809291908181526020018280546115b8906150d0565b80156116055780601f106115da57610100808354040283529160200191611605565b820191906000526020600020905b8154815290600101906020018083116115e857829003601f168201915b505050505081526020016004820160009054906101000a900473ffffffffffffffffffffffffffffffffffffffff1673ffffffffffffffffffffffffffffffffffffffff1673ffffffffffffffffffffffffffffffffffffffff1681526020016004820160149054906101000a900460ff161515151581525050908060100160009054906101000a900460ff16908060100160019054906101000a900460ff16905085565b60006060806000806000606080600080600660008c8152602001908152602001600020600001549450600660008c815260200190815260200160002060080160000180546116f7906150d0565b80601f0160208091040260200160405190810160405280929190818152602001828054611723906150d0565b80156117705780601f1061174557610100808354040283529160200191611770565b820191906000526020600020905b81548152906001019060200180831161175357829003601f168201915b50505050509350600660008c8152602001908152602001600020600801600201805461179b906150d0565b80601f01602080910402602001604051908101604052809291908181526020018280546117c7906150d0565b80156118145780601f106117e957610100808354040283529160200191611814565b820191906000526020600020905b8154815290600101906020018083116117f757829003601f168201915b50505050509250600660008c815260200190815260200160002060100160009054906101000a900460ff169150600660008c815260200190815260200160002060100160019054906101000a900460ff169050848484848499509950995099509950505050505091939590929450565b6060600380548060200260200160405190810160405280929190818152602001828054801561190857602002820191906000526020600020905b8160009054906101000a900473ffffffffffffffffffffffffffffffffffffffff1673ffffffffffffffffffffffffffffffffffffffff16815260200190600101908083116118be575b5050505050905090565b6000806000806000806000806000600660008d81526020019081526020016000209050600081600f0160008d8152602001908152602001600020905060008160070160008d815260200190815260200160002090508060000154965080600101549550806002015494508060030160009054906101000a900460ff169350868686869a509a509a509a505050505050505093509350935093565b6000600860009054906101000a900473ffffffffffffffffffffffffffffffffffffffff16905090565b600860009054906101000a900473ffffffffffffffffffffffffffffffffffffffff1673ffffffffffffffffffffffffffffffffffffffff163373ffffffffffffffffffffffffffffffffffffffff1614611a66576040517f08c379a0000000000000000000000000000000000000000000000000000000008152600401611a5d90615015565b60405180910390fd5b60008060008373ffffffffffffffffffffffffffffffffffffffff1673ffffffffffffffffffffffffffffffffffffffff16815260200190815260200160002060040160146101000a81548160ff02191690831515021790555050565b6000806000806000806000806000600660008c81526020019081526020016000209050600081600f0160008c815260200190815260200160002090508060050160009054906101000a900460ff16955080600601549450806008015493508060090160009054906101000a900460ff16925085858585995099509950995050505050505092959194509250565b600860009054906101000a900473ffffffffffffffffffffffffffffffffffffffff1673ffffffffffffffffffffffffffffffffffffffff163373ffffffffffffffffffffffffffffffffffffffff1614611be0576040517f08c379a0000000000000000000000000000000000000000000000000000000008152600401611bd790615015565b60405180910390fd5b6000600260008373ffffffffffffffffffffffffffffffffffffffff1673ffffffffffffffffffffffffffffffffffffffff16815260200190815260200160002060060160006101000a81548160ff02191690831515021790555050565b60606005805480602002602001604051908101604052809291908181526020018280548015611cc257602002820191906000526020600020905b8160009054906101000a900473ffffffffffffffffffffffffffffffffffffffff1673ffffffffffffffffffffffffffffffffffffffff1681526020019060010190808311611c78575b5050505050905090565b606080606060008060608060606000806000600660008e81526020019081526020016000209050600081600f0160008e81526020019081526020016000209050806000018054611d1b906150d0565b80601f0160208091040260200160405190810160405280929190818152602001828054611d47906150d0565b8015611d945780601f10611d6957610100808354040283529160200191611d94565b820191906000526020600020905b815481529060010190602001808311611d7757829003601f168201915b50505050509650806001018054611daa906150d0565b80601f0160208091040260200160405190810160405280929190818152602001828054611dd6906150d0565b8015611e235780601f10611df857610100808354040283529160200191611e23565b820191906000526020600020905b815481529060010190602001808311611e0657829003601f168201915b50505050509550806002018054611e39906150d0565b80601f0160208091040260200160405190810160405280929190818152602001828054611e65906150d0565b8015611eb25780601f10611e8757610100808354040283529160200191611eb2565b820191906000526020600020905b815481529060010190602001808311611e9557829003601f168201915b50505050509450806003015493508060040154925086868686869b509b509b509b509b50505050505050509295509295909350565b6000602052806000526040600020600091509050806000018054611f0a906150d0565b80601f0160208091040260200160405190810160405280929190818152602001828054611f36906150d0565b8015611f835780601f10611f5857610100808354040283529160200191611f83565b820191906000526020600020905b815481529060010190602001808311611f6657829003601f168201915b505050505090806001018054611f98906150d0565b80601f0160208091040260200160405190810160405280929190818152602001828054611fc4906150d0565b80156120115780601f10611fe657610100808354040283529160200191612011565b820191906000526020600020905b815481529060010190602001808311611ff457829003601f168201915b505050505090806002018054612026906150d0565b80601f0160208091040260200160405190810160405280929190818152602001828054612052906150d0565b801561209f5780601f106120745761010080835404028352916020019161209f565b820191906000526020600020905b81548152906001019060200180831161208257829003601f168201915b5050505050908060030180546120b4906150d0565b80601f01602080910402602001604051908101604052809291908181526020018280546120e0906150d0565b801561212d5780601f106121025761010080835404028352916020019161212d565b820191906000526020600020905b81548152906001019060200180831161211057829003601f168201915b5050505050908060040160009054906101000a900473ffffffffffffffffffffffffffffffffffffffff16908060040160149054906101000a900460ff16905086565b60004290506301e1338060066000848152602001908152602001600020600001548261219c9190615131565b11156121d65760006006600084815260200190815260200160002060100160006101000a81548160ff021916908315150217905550612206565b60016006600084815260200190815260200160002060100160006101000a81548160ff0219169083151502179055505b5050565b60003390506000808273ffffffffffffffffffffffffffffffffffffffff1673ffffffffffffffffffffffffffffffffffffffff16815260200190815260200160002060040160149054906101000a900460ff1661229d576040517f08c379a000000000000000000000000000000000000000000000000000000000815260040161229490615015565b60405180910390fd5b600780549050600a81905550600a60008154809291906122bc90615165565b91905055506007600a549080600181540180825580915050600190039060005260206000200160009091909190915055600260008373ffffffffffffffffffffffffffffffffffffffff1673ffffffffffffffffffffffffffffffffffffffff168152602001908152602001600020600501600a549080600181540180825580915050600190039060005260206000200160009091909190915055600060066000600a54815260200190815260200160002090504281600001819055506000808573ffffffffffffffffffffffffffffffffffffffff1673ffffffffffffffffffffffffffffffffffffffff1681526020019081526020016000208160080160008201816000019080546123cf906150d0565b6123da929190613f15565b5060018201816001019080546123ef906150d0565b6123fa929190613f15565b50600282018160020190805461240f906150d0565b61241a929190613f15565b50600382018160030190805461242f906150d0565b61243a929190613f15565b506004820160009054906101000a900473ffffffffffffffffffffffffffffffffffffffff168160040160006101000a81548173ffffffffffffffffffffffffffffffffffffffff021916908373ffffffffffffffffffffffffffffffffffffffff1602179055506004820160149054906101000a900460ff168160040160146101000a81548160ff021916908315150217905550905050600260008473ffffffffffffffffffffffffffffffffffffffff1673ffffffffffffffffffffffffffffffffffffffff168152602001908152602001600020816001016000820181600001908054612529906150d0565b612534929190613f15565b506001820181600101908054612549906150d0565b612554929190613f15565b50600282015481600201556003820181600301908054612573906150d0565b61257e929190613f15565b506004820160009054906101000a900473ffffffffffffffffffffffffffffffffffffffff168160040160006101000a81548173ffffffffffffffffffffffffffffffffffffffff021916908373ffffffffffffffffffffffffffffffffffffffff16021790555060058201816005019080546125fc929190613fa2565b506006820160009054906101000a900460ff168160060160006101000a81548160ff02191690831515021790555090505060018160100160006101000a81548160ff02191690831515021790555060008160100160016101000a81548160ff021916908315150217905550600067ffffffffffffffff8111156126825761268161408d565b5b6040519080825280602002602001820160405280156126b05781602001602082028036833780820191505090505b5081600d0190805190602001906126c8929190613ff4565b5050505050565b600860009054906101000a900473ffffffffffffffffffffffffffffffffffffffff1673ffffffffffffffffffffffffffffffffffffffff163373ffffffffffffffffffffffffffffffffffffffff161461275f576040517f08c379a000000000000000000000000000000000000000000000000000000000815260040161275690615015565b60405180910390fd5b6040518060c001604052808681526020018581526020018481526020018381526020018273ffffffffffffffffffffffffffffffffffffffff16815260200160011515815250600460008373ffffffffffffffffffffffffffffffffffffffff1673ffffffffffffffffffffffffffffffffffffffff1681526020019081526020016000206000820151816000019080519060200190612800929190613e8f565b50602082015181600101908051906020019061281d929190613e8f565b50604082015181600201908051906020019061283a929190613e8f565b506060820151816003019080519060200190612857929190613e8f565b5060808201518160040160006101000a81548173ffffffffffffffffffffffffffffffffffffffff021916908373ffffffffffffffffffffffffffffffffffffffff16021790555060a08201518160040160146101000a81548160ff0219169083151502179055509050506005819080600181540180825580915050600190039060005260206000200160009091909190916101000a81548173ffffffffffffffffffffffffffffffffffffffff021916908373ffffffffffffffffffffffffffffffffffffffff1602179055505050505050565b6060600060066000848152602001908152602001600020600d0180548060200260200160405190810160405280929190818152602001828054801561299057602002820191906000526020600020905b81548152602001906001019080831161297c575b5050505050905080915050919050565b6000339050600460008273ffffffffffffffffffffffffffffffffffffffff1673ffffffffffffffffffffffffffffffffffffffff16815260200190815260200160002060040160149054906101000a900460ff16612a34576040517f08c379a0000000000000000000000000000000000000000000000000000000008152600401612a2b90615015565b60405180910390fd5b6006600086815260200190815260200160002060100160009054906101000a900460ff16612a97576040517f08c379a0000000000000000000000000000000000000000000000000000000008152600401612a8e906151fa565b60405180910390fd5b60066000868152602001908152602001600020600f01600085815260200190815260200160002060060154600b81905550600b6000815480929190612adb90615165565b9190505550600b5460066000878152602001908152602001600020600f01600086815260200190815260200160002060060181905550600060066000878152602001908152602001600020600f0160008681526020019081526020016000206007016000600b548152602001908152602001600020905042816000018190555083816001018190555082816002018190555060018160030160006101000a81548160ff021916908315150217905550600060066000888152602001908152602001600020600f0160008781526020019081526020016000206004015490508481612bc59190615131565b60066000898152602001908152602001600020600f0160008881526020019081526020016000206008018190555050505050505050565b6004602052806000526040600020600091509050806000018054612c1f906150d0565b80601f0160208091040260200160405190810160405280929190818152602001828054612c4b906150d0565b8015612c985780601f10612c6d57610100808354040283529160200191612c98565b820191906000526020600020905b815481529060010190602001808311612c7b57829003601f168201915b505050505090806001018054612cad906150d0565b80601f0160208091040260200160405190810160405280929190818152602001828054612cd9906150d0565b8015612d265780601f10612cfb57610100808354040283529160200191612d26565b820191906000526020600020905b815481529060010190602001808311612d0957829003601f168201915b505050505090806002018054612d3b906150d0565b80601f0160208091040260200160405190810160405280929190818152602001828054612d67906150d0565b8015612db45780601f10612d8957610100808354040283529160200191612db4565b820191906000526020600020905b815481529060010190602001808311612d9757829003601f168201915b505050505090806003018054612dc9906150d0565b80601f0160208091040260200160405190810160405280929190818152602001828054612df5906150d0565b8015612e425780601f10612e1757610100808354040283529160200191612e42565b820191906000526020600020905b815481529060010190602001808311612e2557829003601f168201915b5050505050908060040160009054906101000a900473ffffffffffffffffffffffffffffffffffffffff16908060040160149054906101000a900460ff16905086565b600860009054906101000a900473ffffffffffffffffffffffffffffffffffffffff1673ffffffffffffffffffffffffffffffffffffffff163373ffffffffffffffffffffffffffffffffffffffff1614612f15576040517f08c379a0000000000000000000000000000000000000000000000000000000008152600401612f0c90615015565b60405180910390fd5b6040518060e001604052808681526020018581526020018481526020018381526020018273ffffffffffffffffffffffffffffffffffffffff168152602001600067ffffffffffffffff811115612f6f57612f6e61408d565b5b604051908082528060200260200182016040528015612f9d5781602001602082028036833780820191505090505b50815260200160011515815250600260008373ffffffffffffffffffffffffffffffffffffffff1673ffffffffffffffffffffffffffffffffffffffff1681526020019081526020016000206000820151816000019080519060200190613005929190613e8f565b506020820151816001019080519060200190613022929190613e8f565b50604082015181600201556060820151816003019080519060200190613049929190613e8f565b5060808201518160040160006101000a81548173ffffffffffffffffffffffffffffffffffffffff021916908373ffffffffffffffffffffffffffffffffffffffff16021790555060a08201518160050190805190602001906130ad929190613ff4565b5060c08201518160060160006101000a81548160ff0219169083151502179055509050506003819080600181540180825580915050600190039060005260206000200160009091909190916101000a81548173ffffffffffffffffffffffffffffffffffffffff021916908373ffffffffffffffffffffffffffffffffffffffff1602179055505050505050565b60606000808373ffffffffffffffffffffffffffffffffffffffff1673ffffffffffffffffffffffffffffffffffffffff1681526020019081526020016000206000018054613189906150d0565b80601f01602080910402602001604051908101604052809291908181526020018280546131b5906150d0565b80156132025780601f106131d757610100808354040283529160200191613202565b820191906000526020600020905b8154815290600101906020018083116131e557829003601f168201915b50505050509050919050565b60003390506000808273ffffffffffffffffffffffffffffffffffffffff1673ffffffffffffffffffffffffffffffffffffffff16815260200190815260200160002060040160149054906101000a900460ff166132a1576040517f08c379a000000000000000000000000000000000000000000000000000000000815260040161329890615015565b60405180910390fd5b6006600084815260200190815260200160002060100160009054906101000a900460ff16613304576040517f08c379a00000000000000000000000000000000000000000000000000000000081526004016132fb906151fa565b60405180910390fd5b600060066000858152602001908152602001600020600f01600084815260200190815260200160002060090160006101000a81548160ff021916908315150217905550505050565b60003390506000808273ffffffffffffffffffffffffffffffffffffffff1673ffffffffffffffffffffffffffffffffffffffff16815260200190815260200160002060040160149054906101000a900460ff166133df576040517f08c379a00000000000000000000000000000000000000000000000000000000081526004016133d690615015565b60405180910390fd5b6006600088815260200190815260200160002060100160009054906101000a900460ff16613442576040517f08c379a0000000000000000000000000000000000000000000000000000000008152600401613439906151fa565b60405180910390fd5b60066000888152602001908152602001600020600d01805490506009819055506009600081548092919061347590615165565b919050555060066000888152602001908152602001600020600d01600954908060018154018082558091505060019003906000526020600020016000909190919091505560095460066000898152602001908152602001600020600e01876040516134e09190615256565b908152602001604051809103902081905550600060066000898152602001908152602001600020600f0160006009548152602001908152602001600020905086816000019080519060200190613537929190613e8f565b5085816001019080519060200190613550929190613e8f565b5084816002019080519060200190613569929190613e8f565b5083816003018190555082816004018190555060008160050160006101000a81548160ff0219169083151502179055506000816006018190555060018160090160006101000a81548160ff0219169083151502179055508281600801819055505050505050505050565b600860009054906101000a900473ffffffffffffffffffffffffffffffffffffffff1673ffffffffffffffffffffffffffffffffffffffff163373ffffffffffffffffffffffffffffffffffffffff1614613663576040517f08c379a000000000000000000000000000000000000000000000000000000000815260040161365a90615015565b60405180910390fd5b6040518060c001604052808681526020018581526020018481526020018381526020018273ffffffffffffffffffffffffffffffffffffffff168152602001600115158152506000808373ffffffffffffffffffffffffffffffffffffffff1673ffffffffffffffffffffffffffffffffffffffff1681526020019081526020016000206000820151816000019080519060200190613703929190613e8f565b506020820151816001019080519060200190613720929190613e8f565b50604082015181600201908051906020019061373d929190613e8f565b50606082015181600301908051906020019061375a929190613e8f565b5060808201518160040160006101000a81548173ffffffffffffffffffffffffffffffffffffffff021916908373ffffffffffffffffffffffffffffffffffffffff16021790555060a08201518160040160146101000a81548160ff0219169083151502179055509050506001819080600181540180825580915050600190039060005260206000200160009091909190916101000a81548173ffffffffffffffffffffffffffffffffffffffff021916908373ffffffffffffffffffffffffffffffffffffffff1602179055505050505050565b606060018054806020026020016040519081016040528092919081815260200182805480156138b357602002820191906000526020600020905b8160009054906101000a900473ffffffffffffffffffffffffffffffffffffffff1673ffffffffffffffffffffffffffffffffffffffff1681526020019060010190808311613869575b5050505050905090565b600860009054906101000a900473ffffffffffffffffffffffffffffffffffffffff1673ffffffffffffffffffffffffffffffffffffffff163373ffffffffffffffffffffffffffffffffffffffff161461394d576040517f08c379a000000000000000000000000000000000000000000000000000000000815260040161394490615015565b60405180910390fd5b6000600460008373ffffffffffffffffffffffffffffffffffffffff1673ffffffffffffffffffffffffffffffffffffffff16815260200190815260200160002060040160146101000a81548160ff02191690831515021790555050565b606060078054806020026020016040519081016040528092919081815260200182805480156139f957602002820191906000526020600020905b8154815260200190600101908083116139e5575b5050505050905090565b60006060806060600060608060606000600660008c8152602001908152602001600020600e018a604051613a379190615256565b9081526020016040518091039020541115613ca157600660008b8152602001908152602001600020600e0189604051613a709190615256565b9081526020016040518091039020549350600660008b8152602001908152602001600020600f0160008581526020019081526020016000206000018054613ab6906150d0565b80601f0160208091040260200160405190810160405280929190818152602001828054613ae2906150d0565b8015613b2f5780601f10613b0457610100808354040283529160200191613b2f565b820191906000526020600020905b815481529060010190602001808311613b1257829003601f168201915b50505050509250600660008b8152602001908152602001600020600f0160008581526020019081526020016000206001018054613b6b906150d0565b80601f0160208091040260200160405190810160405280929190818152602001828054613b97906150d0565b8015613be45780601f10613bb957610100808354040283529160200191613be4565b820191906000526020600020905b815481529060010190602001808311613bc757829003601f168201915b50505050509150600660008b8152602001908152602001600020600f0160008581526020019081526020016000206002018054613c20906150d0565b80601f0160208091040260200160405190810160405280929190818152602001828054613c4c906150d0565b8015613c995780601f10613c6e57610100808354040283529160200191613c99565b820191906000526020600020905b815481529060010190602001808311613c7c57829003601f168201915b505050505090505b8383838397509750975097505050505092959194509250565b60003390506000808273ffffffffffffffffffffffffffffffffffffffff1673ffffffffffffffffffffffffffffffffffffffff16815260200190815260200160002060040160149054906101000a900460ff16613d4d576040517f08c379a0000000000000000000000000000000000000000000000000000000008152600401613d4490615015565b60405180910390fd5b6006600089815260200190815260200160002060100160009054906101000a900460ff16613db0576040517f08c379a0000000000000000000000000000000000000000000000000000000008152600401613da7906151fa565b60405180910390fd5b6000600660008a8152602001908152602001600020600f016000898152602001908152602001600020905086816000019080519060200190613df3929190613e8f565b5085816001019080519060200190613e0c929190613e8f565b5084816002019080519060200190613e25929190613e8f565b5083816003018190555082816004018190555060018160050160006101000a81548160ff021916908315150217905550828160080181905550505050505050505050565b600860009054906101000a900473ffffffffffffffffffffffffffffffffffffffff1681565b828054613e9b906150d0565b90600052602060002090601f016020900481019282613ebd5760008555613f04565b82601f10613ed657805160ff1916838001178555613f04565b82800160010185558215613f04579182015b82811115613f03578251825591602001919060010190613ee8565b5b509050613f119190614041565b5090565b828054613f21906150d0565b90600052602060002090601f016020900481019282613f435760008555613f91565b82601f10613f545780548555613f91565b82800160010185558215613f9157600052602060002091601f016020900482015b82811115613f90578254825591600101919060010190613f75565b5b509050613f9e9190614041565b5090565b828054828255906000526020600020908101928215613fe35760005260206000209182015b82811115613fe2578254825591600101919060010190613fc7565b5b509050613ff09190614041565b5090565b828054828255906000526020600020908101928215614030579160200282015b8281111561402f578251825591602001919060010190614014565b5b50905061403d9190614041565b5090565b5b8082111561405a576000816000905550600101614042565b5090565b6000604051905090565b600080fd5b600080fd5b600080fd5b600080fd5b6000601f19601f8301169050919050565b7f4e487b7100000000000000000000000000000000000000000000000000000000600052604160045260246000fd5b6140c58261407c565b810181811067ffffffffffffffff821117156140e4576140e361408d565b5b80604052505050565b60006140f761405e565b905061410382826140bc565b919050565b600067ffffffffffffffff8211156141235761412261408d565b5b61412c8261407c565b9050602081019050919050565b82818337600083830152505050565b600061415b61415684614108565b6140ed565b90508281526020810184848401111561417757614176614077565b5b614182848285614139565b509392505050565b600082601f83011261419f5761419e614072565b5b81356141af848260208601614148565b91505092915050565b6000819050919050565b6141cb816141b8565b81146141d657600080fd5b50565b6000813590506141e8816141c2565b92915050565b600073ffffffffffffffffffffffffffffffffffffffff82169050919050565b6000614219826141ee565b9050919050565b6142298161420e565b811461423457600080fd5b50565b60008135905061424681614220565b92915050565b600080600080600060a0868803121561426857614267614068565b5b600086013567ffffffffffffffff8111156142865761428561406d565b5b6142928882890161418a565b955050602086013567ffffffffffffffff8111156142b3576142b261406d565b5b6142bf8882890161418a565b94505060406142d0888289016141d9565b935050606086013567ffffffffffffffff8111156142f1576142f061406d565b5b6142fd8882890161418a565b925050608061430e88828901614237565b9150509295509295909350565b60006020828403121561433157614330614068565b5b600061433f84828501614237565b91505092915050565b600081519050919050565b600082825260208201905092915050565b60005b83811015614382578082015181840152602081019050614367565b83811115614391576000848401525b50505050565b60006143a282614348565b6143ac8185614353565b93506143bc818560208601614364565b6143c58161407c565b840191505092915050565b6143d9816141b8565b82525050565b6143e88161420e565b82525050565b60008115159050919050565b614403816143ee565b82525050565b600060c08201905081810360008301526144238189614397565b905081810360208301526144378188614397565b905061444660408301876143d0565b81810360608301526144588186614397565b905061446760808301856143df565b61447460a08301846143fa565b979650505050505050565b60006020828403121561449557614494614068565b5b60006144a3848285016141d9565b91505092915050565b600080600080600060a086880312156144c8576144c7614068565b5b600086013567ffffffffffffffff8111156144e6576144e561406d565b5b6144f28882890161418a565b955050602086013567ffffffffffffffff8111156145135761451261406d565b5b61451f8882890161418a565b945050604086013567ffffffffffffffff8111156145405761453f61406d565b5b61454c8882890161418a565b935050606086013567ffffffffffffffff81111561456d5761456c61406d565b5b6145798882890161418a565b925050608061458a88828901614237565b9150509295509295909350565b60006020820190506145ac60008301846143df565b92915050565b600081519050919050565b600082825260208201905092915050565b6000819050602082019050919050565b6145e7816141b8565b82525050565b60006145f983836145de565b60208301905092915050565b6000602082019050919050565b600061461d826145b2565b61462781856145bd565b9350614632836145ce565b8060005b8381101561466357815161464a88826145ed565b975061465583614605565b925050600181019050614636565b5085935050505092915050565b6000602082019050818103600083015261468a8184614612565b905092915050565b600082825260208201905092915050565b60006146ae82614348565b6146b88185614692565b93506146c8818560208601614364565b6146d18161407c565b840191505092915050565b6146e58161420e565b82525050565b600082825260208201905092915050565b6000614707826145b2565b61471181856146eb565b935061471c836145ce565b8060005b8381101561474d57815161473488826145ed565b975061473f83614605565b925050600181019050614720565b5085935050505092915050565b614763816143ee565b82525050565b600060e083016000830151848203600086015261478682826146a3565b915050602083015184820360208601526147a082826146a3565b91505060408301516147b560408601826145de565b50606083015184820360608601526147cd82826146a3565b91505060808301516147e260808601826146dc565b5060a083015184820360a08601526147fa82826146fc565b91505060c083015161480f60c086018261475a565b508091505092915050565b600060c083016000830151848203600086015261483782826146a3565b9150506020830151848203602086015261485182826146a3565b9150506040830151848203604086015261486b82826146a3565b9150506060830151848203606086015261488582826146a3565b915050608083015161489a60808601826146dc565b5060a08301516148ad60a086018261475a565b508091505092915050565b600060a0820190506148cd60008301886143d0565b81810360208301526148df8187614769565b905081810360408301526148f3818661481a565b905061490260608301856143fa565b61490f60808301846143fa565b9695505050505050565b600060a08201905061492e60008301886143d0565b81810360208301526149408187614397565b905081810360408301526149548186614397565b905061496360608301856143fa565b61497060808301846143fa565b9695505050505050565b600081519050919050565b600082825260208201905092915050565b6000819050602082019050919050565b60006149b283836146dc565b60208301905092915050565b6000602082019050919050565b60006149d68261497a565b6149e08185614985565b93506149eb83614996565b8060005b83811015614a1c578151614a0388826149a6565b9750614a0e836149be565b9250506001810190506149ef565b5085935050505092915050565b60006020820190508181036000830152614a4381846149cb565b905092915050565b600080600060608486031215614a6457614a63614068565b5b6000614a72868287016141d9565b9350506020614a83868287016141d9565b9250506040614a94868287016141d9565b9150509250925092565b6000608082019050614ab360008301876143d0565b614ac060208301866143d0565b614acd60408301856143d0565b614ada60608301846143fa565b95945050505050565b60008060408385031215614afa57614af9614068565b5b6000614b08858286016141d9565b9250506020614b19858286016141d9565b9150509250929050565b6000608082019050614b3860008301876143fa565b614b4560208301866143d0565b614b5260408301856143d0565b614b5f60608301846143fa565b95945050505050565b600060a0820190508181036000830152614b828188614397565b90508181036020830152614b968187614397565b90508181036040830152614baa8186614397565b9050614bb960608301856143d0565b614bc660808301846143d0565b9695505050505050565b600060c0820190508181036000830152614bea8189614397565b90508181036020830152614bfe8188614397565b90508181036040830152614c128187614397565b90508181036060830152614c268186614397565b9050614c3560808301856143df565b614c4260a08301846143fa565b979650505050505050565b60008060408385031215614c6457614c63614068565b5b6000614c7285828601614237565b9250506020614c8385828601614237565b9150509250929050565b60008060008060808587031215614ca757614ca6614068565b5b6000614cb5878288016141d9565b9450506020614cc6878288016141d9565b9350506040614cd7878288016141d9565b9250506060614ce8878288016141d9565b91505092959194509250565b60006020820190508181036000830152614d0e8184614397565b905092915050565b60008060008060008060c08789031215614d3357614d32614068565b5b6000614d4189828a016141d9565b965050602087013567ffffffffffffffff811115614d6257614d6161406d565b5b614d6e89828a0161418a565b955050604087013567ffffffffffffffff811115614d8f57614d8e61406d565b5b614d9b89828a0161418a565b945050606087013567ffffffffffffffff811115614dbc57614dbb61406d565b5b614dc889828a0161418a565b9350506080614dd989828a016141d9565b92505060a0614dea89828a016141d9565b9150509295509295509295565b60008060408385031215614e0e57614e0d614068565b5b6000614e1c858286016141d9565b925050602083013567ffffffffffffffff811115614e3d57614e3c61406d565b5b614e498582860161418a565b9150509250929050565b6000608082019050614e6860008301876143d0565b8181036020830152614e7a8186614397565b90508181036040830152614e8e8185614397565b90508181036060830152614ea28184614397565b905095945050505050565b600080600080600080600060e0888a031215614ecc57614ecb614068565b5b6000614eda8a828b016141d9565b9750506020614eeb8a828b016141d9565b965050604088013567ffffffffffffffff811115614f0c57614f0b61406d565b5b614f188a828b0161418a565b955050606088013567ffffffffffffffff811115614f3957614f3861406d565b5b614f458a828b0161418a565b945050608088013567ffffffffffffffff811115614f6657614f6561406d565b5b614f728a828b0161418a565b93505060a0614f838a828b016141d9565b92505060c0614f948a828b016141d9565b91505092959891949750929550565b7f596f7520617265206e6f7420617574686f726973656420666f7220746869732060008201527f616374696f6e0000000000000000000000000000000000000000000000000000602082015250565b6000614fff602683614353565b915061500a82614fa3565b604082019050919050565b6000602082019050818103600083015261502e81614ff2565b9050919050565b7f55736572206973206e6f206c6f6e6765722076616c6964000000000000000000600082015250565b600061506b601783614353565b915061507682615035565b602082019050919050565b6000602082019050818103600083015261509a8161505e565b9050919050565b7f4e487b7100000000000000000000000000000000000000000000000000000000600052602260045260246000fd5b600060028204905060018216806150e857607f821691505b602082108114156150fc576150fb6150a1565b5b50919050565b7f4e487b7100000000000000000000000000000000000000000000000000000000600052601160045260246000fd5b600061513c826141b8565b9150615147836141b8565b92508282101561515a57615159615102565b5b828203905092915050565b6000615170826141b8565b91507fffffffffffffffffffffffffffffffffffffffffffffffffffffffffffffffff8214156151a3576151a2615102565b5b600182019050919050565b7f507265736372697074696f6e206973206e6f206c6f6e6765722076616c696400600082015250565b60006151e4601f83614353565b91506151ef826151ae565b602082019050919050565b60006020820190508181036000830152615213816151d7565b9050919050565b600081905092915050565b600061523082614348565b61523a818561521a565b935061524a818560208601614364565b80840191505092915050565b60006152628284615225565b91508190509291505056fea2646970667358221220818520f5ac03650efa4673885a575927ed1a0dde2e17219ce757b36a70a12a4964736f6c634300080b0033",
  "immutableReferences": {},
  "source": "pragma solidity ^0.8.4;\n\ncontract Rx {\n\n  //structure to hold the details of a prescriber\n  struct Prescriber {\n    string name; //name of prescriber\n    string mcr; //MCR of prescriber\n    string clinicName; //name of clinic\n    string clinicAddress; //address of clinic\n    address addr; //address of prescriber\n    bool valid; //valid status\n  }\n\n //structure to hold the details of a patient\n struct Patient {\n    string name; //name of patient\n    string ic; //IC of patient\n    uint birthDate; //birth date of patient\n    string homeAddress; //home address of patient\n    address addr; //address of patient\n    uint[] prescriptionList; //prescription list of patient\n    bool valid; //valid status\n  }\n\n  //structure to hold the details of a pharmacist\n  struct Pharmacist {\n    string name; //name of pharmacist\n    string prn; //PRN of pharmacist\n    string clinicName; //name of clinic\n    string clinicAddress; //address of clinic\n    address addr; //address of pharmacist\n    bool valid; //valid status\n  }\n\n  //structure to hold the details of a prescribed medication\n  struct Drug {\n    string name; //name of drug\n    string strength; //strength of drug\n    string dosing; //dosing frequency of drug\n    uint duration; //duration of use\n    uint quantity; //quantity of drug prescribed\n    bool modified; //modified status [COUNTER???]\n    uint dispenseCounter; //counter\n    mapping(uint => Dispense) dispenseStructs; // random access by dispense key\n    uint balance; //balance\n    bool valid; //valid status\n  }\n\n  //structure to hold Rx details\n  struct Prescription {\n    uint date; //date of Rx\n    Patient patientDetails; //details of patient\n    Prescriber prescriberDetails; //details of prescriber\n    uint[] drugList; //list of drug keys so we can look them up\n    mapping(string => uint) drugNames; // mapping drug name to drug key\n    mapping(uint => Drug) drugStructs; // random access by drug key\n    bool valid; //valid status\n    bool reviewed; //reviewed status\n  }\n\n  //structure to hold the details of a dispensed drug\n  struct Dispense {\n    uint dispensedDate; //date of dispensing\n    uint dispensedQuantity; //quantity of drug dispensed\n    uint dispensedDuration; //duration of drug dispensed\n    bool dispensed; // dispensed status\n  }\n\n  mapping(address => Prescriber) public prescriberStructs; //access by prescriber address\n  address[] public prescriberList; //list of prescriber address so we can enumerate them\n\n\n\n  mapping(address => Patient) public patientStructs; //access by patient address\n  address[] patientList; //list of patient address so we can enumerate them\n\n  mapping(address => Pharmacist) public pharmacistStructs; //access by pharmacist address\n  address[] pharmacistList; //list of pharmacist address so we can enumerate them\n\n  mapping(uint => Prescription) public prescriptionStructs; //access by prescription key\n  uint[] prescriptionList; //list of prescription keys so we can enumerate them\n\n  address public admin; //owner of the smart contract\n\n  uint drugCount; //for addDrug\n\n  uint prescriptionCount; //for newPrescription - TESTING\n  uint dispenseCount; //for dispenseDrug\n\n  constructor() {\n     admin = msg.sender;\n  }\n\n  //function can only run if user is admin\n  modifier onlyAdmin {\n    require(msg.sender == admin, \"You are not authorised for this action\");\n    _;\n  }\n\n  //function can only run if user is prescriber\n  modifier onlyPrescriber {\n    address addr = msg.sender;\n    require(prescriberStructs[addr].valid, \"You are not authorised for this action\");\n    _;\n  }\n\n  //function can only run if user is pharmacist\n  modifier onlyPharmacist {\n    address addr = msg.sender;\n    require(pharmacistStructs[addr].valid, \"You are not authorised for this action\");\n    _;\n  }\n\n  //adding a prescriber - require to be admin\n  function setPrescriber(string memory _name, string memory _mcr, string memory _clinicName, string memory _clinicAddress, address _addr) public onlyAdmin {\n    prescriberStructs[_addr] = Prescriber({\n      name: _name,\n      mcr: _mcr,\n      clinicName: _clinicName,\n      clinicAddress: _clinicAddress,\n      addr: _addr,\n      valid: true\n      });\n    prescriberList.push(_addr);\n  }\n\n  //update a prescriber - require to be admin\n  function updatePrescriber(string memory _name, string memory _mcr, string memory _clinicName, string memory _clinicAddress, address _addr) public onlyAdmin {\n    require(prescriberStructs[_addr].valid, \"User is no longer valid\"); //require prescriber to be valid\n    Prescriber storage p = prescriberStructs[_addr];\n    p.name = _name;\n    p.mcr = _mcr;\n    p.clinicName = _clinicName;\n    p.clinicAddress = _clinicAddress;\n  }\n\n  //adding a patient - require to be admin\n  function setPatient(string memory _name, string memory _ic, uint _birthDate, string memory _homeAddress, address _addr) public onlyAdmin {\n    patientStructs[_addr] = Patient({\n      name: _name,\n      ic: _ic,\n      birthDate: _birthDate,\n      homeAddress: _homeAddress,\n      addr: _addr,\n      valid: true,\n      prescriptionList: new uint[](0)\n      });\n    patientList.push(_addr);\n  }\n\n  //update a patient - require to be admin\n  function updatePatient(string memory _name, string memory _ic, uint _birthDate, string memory _homeAddress, address _addr) public onlyAdmin {\n    require(patientStructs[_addr].valid, \"User is no longer valid\"); //require patient to be valid\n    Patient storage p = patientStructs[_addr];\n    p.name = _name;\n    p.ic = _ic;\n    p.birthDate = _birthDate;\n    p.homeAddress = _homeAddress;\n  }\n\n  //adding a pharmacist - require to be admin\n  function setPharmacist(string memory _name, string memory _prn, string memory _clinicName, string memory _clinicAddress, address _addr) public onlyAdmin {\n    pharmacistStructs[_addr] = Pharmacist({\n      name: _name,\n      prn: _prn,\n      clinicName: _clinicName,\n      clinicAddress: _clinicAddress,\n      addr: _addr,\n      valid: true\n      });\n    pharmacistList.push(_addr);\n  }\n\n  //update a pharmacist - require to be admin\n  function updatePharmacist(string memory _name, string memory _prn, string memory _clinicName, string memory _clinicAddress, address _addr) public onlyAdmin {\n    require(pharmacistStructs[_addr].valid, \"User is no longer valid\"); //require pharmacist to be valid\n    Pharmacist storage p = pharmacistStructs[_addr];\n    p.name = _name;\n    p.prn = _prn;\n    p.clinicName = _clinicName;\n    p.clinicAddress = _clinicAddress;\n  }\n\n  //creating a prescription - require to be prescriber\n  function newPrescription(address _prescriberAddr, address _patientAddr) public onlyPrescriber {\n    prescriptionCount = prescriptionList.length;\n    prescriptionCount++;\n    prescriptionList.push(prescriptionCount);\n\n    patientStructs[_patientAddr].prescriptionList.push(prescriptionCount);\n\n    Prescription storage p = prescriptionStructs[prescriptionCount];\n    p.date = block.timestamp;\n    p.prescriberDetails = prescriberStructs[_prescriberAddr];\n    p.patientDetails = patientStructs[_patientAddr];\n    p.valid = true;\n    p.reviewed = false;\n    p.drugList = new uint[](0);\n  }\n\n  //adding a drug to prescription - require to be prescriber\n  function addDrug(uint _prescriptionKey, string memory _drugName, string memory _strength, string memory _dosing, uint _duration, uint _quantity) public onlyPrescriber {\n    require(prescriptionStructs[_prescriptionKey].valid, \"Prescription is no longer valid\"); //require rx to be valid\n    drugCount = prescriptionStructs[_prescriptionKey].drugList.length; //get existing max drug key\n    drugCount++;\n\n    prescriptionStructs[_prescriptionKey].drugList.push(drugCount); //add drug key to prescription drug list\n    prescriptionStructs[_prescriptionKey].drugNames[_drugName] = drugCount; //mapping drug name to drug key\n\n    Drug storage d = prescriptionStructs[_prescriptionKey].drugStructs[drugCount];\n    d.name = _drugName;\n    d.strength = _strength;\n    d.dosing = _dosing;\n    d.duration = _duration;\n    d.quantity = _quantity;\n    d.modified = false;\n    d.dispenseCounter = 0;\n    d.valid = true;\n    d.balance = _quantity;\n    //balance if it is by duration\n  }\n\n  //remove a drug from prescription - require to be prescriber\n  function removeDrug(uint _prescriptionKey, uint _drugKey) public onlyPrescriber {\n    require(prescriptionStructs[_prescriptionKey].valid, \"Prescription is no longer valid\"); //require rx to be valid\n    prescriptionStructs[_prescriptionKey].drugStructs[_drugKey].valid = false;\n  }\n\n  //update a drug in prescription - require to be prescriber\n  function updateDrug(uint _prescriptionKey, uint _drugKey, string memory _drugName, string memory _strength, string memory _dosing, uint _duration, uint _quantity) public onlyPrescriber {\n    require(prescriptionStructs[_prescriptionKey].valid, \"Prescription is no longer valid\"); //require rx to be valid\n    Drug storage d = prescriptionStructs[_prescriptionKey].drugStructs[_drugKey];\n    d.name = _drugName;\n    d.strength = _strength;\n    d.dosing = _dosing;\n    d.duration = _duration;\n    d.quantity = _quantity;\n    d.modified = true;\n    d.balance = _quantity;\n    //balance if it is by duration\n  }\n\n  //dispense a drug in prescription - require to be pharmacist\n  function dispenseDrug(uint _prescriptionKey, uint _drugKey, uint _dispensedQuantity, uint _dispensedDuration) public onlyPharmacist {\n    require(prescriptionStructs[_prescriptionKey].valid, \"Prescription is no longer valid\"); //require rx to be valid\n    dispenseCount = prescriptionStructs[_prescriptionKey].drugStructs[_drugKey].dispenseCounter;\n    dispenseCount++; //+1 to dispense counter\n    prescriptionStructs[_prescriptionKey].drugStructs[_drugKey].dispenseCounter = dispenseCount; //update dispense coumter\n\n    //conditions to check if quantity or duration is selected\n    Dispense storage dp = prescriptionStructs[_prescriptionKey].drugStructs[_drugKey].dispenseStructs[dispenseCount];\n    dp.dispensedDate = block.timestamp;\n    dp.dispensedQuantity = _dispensedQuantity;\n    dp.dispensedDuration = _dispensedDuration;\n    dp.dispensed = true;\n\n    uint _quantity = prescriptionStructs[_prescriptionKey].drugStructs[_drugKey].quantity;\n    prescriptionStructs[_prescriptionKey].drugStructs[_drugKey].balance = _quantity - _dispensedQuantity;\n    //balance if dispensing by duration\n  }\n\n  //check if prescription is valid\n  function checkValid(uint _prescriptionKey) public {\n    uint _nowDate = block.timestamp;\n    if (_nowDate - prescriptionStructs[_prescriptionKey].date > 31536000) {\n      //if prescription is more than 1 year old\n      prescriptionStructs[_prescriptionKey].valid = false;\n    } else {\n      prescriptionStructs[_prescriptionKey].valid = true;\n    }\n  }\n\n  //review prescription - require to be pharmacist\n  function reviewPrescription(uint _prescriptionKey) public onlyPharmacist {\n    prescriptionStructs[_prescriptionKey].reviewed = true;\n  }\n\n  //check for changes in drugs prescribed from another prescription - runs after getPrescriptionDrugs\n  function checkChanges(uint _prescriptionKey, string memory _drugName) public view returns (uint, string memory, string memory, string memory) {\n    uint _drugKey; //drug key of similar drug in other prescription\n    string memory _name; //name of drug\n    string memory _strength; //strength of drug\n    string memory _dosing; //dosing of drug\n\n    if (prescriptionStructs[_prescriptionKey].drugNames[_drugName] > 0) { //if _drugName exists in another prescription, drug key is >0\n      _drugKey = prescriptionStructs[_prescriptionKey].drugNames[_drugName];\n      _name = prescriptionStructs[_prescriptionKey].drugStructs[_drugKey].name;\n      _strength = prescriptionStructs[_prescriptionKey].drugStructs[_drugKey].strength;\n      _dosing = prescriptionStructs[_prescriptionKey].drugStructs[_drugKey].dosing;\n    }\n    return (_drugKey, _name, _strength, _dosing);\n  }\n\n  //remove prescription - require to be prescriber\n  function removePrescription(uint _prescriptionKey) public onlyPrescriber {\n    prescriptionStructs[_prescriptionKey].valid = false;\n  }\n\n  //remove prescriber - require to be admin\n  function removePrescriber(address _addr) public onlyAdmin {\n    prescriberStructs[_addr].valid = false;\n  }\n\n  //remove prescriber - require to be admin\n  function removePatient(address _addr) public onlyAdmin {\n    patientStructs[_addr].valid = false;\n  }\n\n  //remove prescriber - require to be admin\n  function removePharmacist(address _addr) public onlyAdmin {\n    pharmacistStructs[_addr].valid = false;\n  }\n\n  //retrieving admin\n  function getAdmin() public view returns (address) {\n    return admin;\n  }\n\n  //get list of patient addr\n  function getPatientList() public view returns (address[] memory) {\n    return patientList;\n  }\n\n  //get list of prescriber addr\n  function getPrescriberList() public view returns (address[] memory) {\n    return prescriberList;\n  }\n\n  //get list of pharmacist addr\n  function getPharmacistList() public view returns (address[] memory) {\n    return pharmacistList;\n  }\n\n  //get list of prescription\n  function getPrescriptionList() public view returns (uint[] memory) {\n    return prescriptionList;\n  }\n\n  //get prescriber name from addr\n  function getPrescriberName(address _addr) public view returns (string memory) {\n    return prescriberStructs[_addr].name;\n  }\n\n  //get list of patient prescriptions\n  function getPatientPrescrptionList(address _addr) public view returns (uint[] memory) {\n    return patientStructs[_addr].prescriptionList;\n  }\n\n  //get overview of patient's prescription\n  function getPatientPrescrptionOverview(uint _prescriptionKey) public view returns (uint, string memory, string memory, bool, bool) {\n    uint _date; //date of Rx\n    string memory _prescriberName; //name of prescriber\n    string memory _prescriberClinic; //name of prescriber\n    bool _valid; //valid status\n    bool _reviewed; //reviewed status\n\n    _date = prescriptionStructs[_prescriptionKey].date;\n    _prescriberName = prescriptionStructs[_prescriptionKey].prescriberDetails.name;\n    _prescriberClinic = prescriptionStructs[_prescriptionKey].prescriberDetails.clinicName;\n    _valid = prescriptionStructs[_prescriptionKey].valid;\n    _reviewed = prescriptionStructs[_prescriptionKey].reviewed;\n\n    return (_date, _prescriberName, _prescriberClinic, _valid, _reviewed);\n  }\n\n   //get prescribed drug keys\n  function getPrescriptionDrugKeys(uint _prescriptionKey) public view returns (uint[] memory) {\n    uint[] memory  _drugKeys = prescriptionStructs[_prescriptionKey].drugList;\n    return _drugKeys;\n  }\n\n  //get drug details part 1 - name, stength, dosing, duration/quantity\n  function getPrescriptionDrugDetailsPart1(uint _prescriptionKey, uint _drugKey) public view returns (string memory, string memory, string memory, uint, uint) {\n    string memory _name; //drug name\n    string memory _strength;\n    string memory _dosing;\n    uint _duration;\n    uint _quantity;\n\n    Prescription storage p = prescriptionStructs[_prescriptionKey];\n    Drug storage d = p.drugStructs[_drugKey];\n\n    _name = d.name;\n    _strength = d.strength;\n    _dosing = d.dosing;\n    _duration = d.duration;\n    _quantity = d.quantity;\n\n    return (_name, _strength, _dosing, _duration, _quantity);\n  }\n\n  //get drug details part 2 - modified and valid status, dispensed counter and balance\n  function getPrescriptionDrugDetailsPart2(uint _prescriptionKey, uint _drugKey) public view returns (bool, uint, uint, bool) {\n    bool _modified;\n    uint _dispenseCounter;\n    uint _balance;\n    bool _valid;\n\n    Prescription storage p = prescriptionStructs[_prescriptionKey];\n    Drug storage d = p.drugStructs[_drugKey];\n\n    _modified = d.modified;\n    _dispenseCounter = d.dispenseCounter;\n    _balance = d.balance;\n    _valid = d.valid;\n\n    return (_modified, _dispenseCounter, _balance, _valid);\n  }\n\n  //get dispensed details - date, quantity, duration, dispensed status\n  function getDispensedDetails(uint _prescriptionKey, uint _drugKey, uint _dispenseCounter) public view returns (uint, uint, uint, bool) {\n    uint _dispensedDate;\n    uint _dispensedQuantity;\n    uint _dispensedDuration;\n    bool _dispensed;\n\n    Prescription storage p = prescriptionStructs[_prescriptionKey];\n    Drug storage d = p.drugStructs[_drugKey];\n    Dispense storage dp = d.dispenseStructs[_dispenseCounter];\n\n    _dispensedDate = dp.dispensedDate;\n    _dispensedQuantity = dp.dispensedQuantity;\n    _dispensedDuration = dp.dispensedDuration;\n    _dispensed = dp.dispensed;\n\n    return (_dispensedDate, _dispensedQuantity, _dispensedDuration, _dispensed);\n  }\n\n}\n",
  "sourcePath": "/home/jianyang/blockchain_rx_react/contracts/Rx.sol",
  "compiler": {
    "name": "solc",
    "version": "0.8.11+commit.d7f03943.Emscripten.clang"
  },
  "schemaVersion": "3.4.2",
  "updatedAt": "2022-01-26T15:12:10.509Z",
  "devdoc": {
    "kind": "dev",
    "methods": {},
    "version": 1
  },
  "userdoc": {
    "kind": "user",
    "methods": {},
    "version": 1
  }
}